{
  "address": "0xe7f1725E7734CE288F8367e1Bb143E90bb3F0512",
  "abi": [
    {
      "inputs": [
        {
          "internalType": "address",
          "name": "priceFeedAddress",
          "type": "address"
        }
      ],
      "stateMutability": "nonpayable",
      "type": "constructor"
    },
    {
      "inputs": [],
      "name": "blocktime",
      "outputs": [
        {
          "internalType": "uint256",
          "name": "time",
          "type": "uint256"
        }
      ],
      "stateMutability": "view",
      "type": "function"
    },
    {
      "inputs": [],
      "name": "deployedDate",
      "outputs": [
        {
          "internalType": "uint256",
          "name": "",
          "type": "uint256"
        }
      ],
      "stateMutability": "view",
      "type": "function"
    },
    {
      "inputs": [
        {
          "internalType": "uint256",
          "name": "",
          "type": "uint256"
        }
      ],
      "name": "finding",
      "outputs": [
        {
          "internalType": "string",
          "name": "NameOfcomit",
          "type": "string"
        },
        {
          "internalType": "string",
          "name": "reason",
          "type": "string"
        },
        {
          "internalType": "uint256",
          "name": "amount",
          "type": "uint256"
        }
      ],
      "stateMutability": "view",
      "type": "function"
    },
    {
      "inputs": [
        {
          "internalType": "string",
          "name": "name",
          "type": "string"
        },
        {
          "internalType": "string",
          "name": "reasoning",
          "type": "string"
        }
      ],
      "name": "funding",
      "outputs": [],
      "stateMutability": "payable",
      "type": "function"
    },
    {
      "inputs": [],
      "name": "owner",
      "outputs": [
        {
          "internalType": "address",
          "name": "",
          "type": "address"
        }
      ],
      "stateMutability": "view",
      "type": "function"
    },
    {
      "inputs": [],
      "name": "priceFeed",
      "outputs": [
        {
          "internalType": "contract AggregatorV3Interface",
          "name": "",
          "type": "address"
        }
      ],
      "stateMutability": "view",
      "type": "function"
    },
    {
      "inputs": [],
      "name": "release",
      "outputs": [
        {
          "internalType": "uint256",
          "name": "",
          "type": "uint256"
        }
      ],
      "stateMutability": "view",
      "type": "function"
    },
    {
      "inputs": [],
      "name": "withdraw",
      "outputs": [],
      "stateMutability": "nonpayable",
      "type": "function"
    }
  ],
  "transactionHash": "0x8026bebc326056b5793941dcedd20e221b36be857dbcb341af9c21da53c643d3",
  "args": [
    "0x5FbDB2315678afecb367f032d93F642f64180aa3"
  ],
  "numDeployments": 1,
  "solcInputHash": "ec3de9c12832273800e96daa26f4b4b9",
  "bytecode": "0x60a06040523480156200001157600080fd5b50604051620012f9380380620012f983398181016040528101906200003791906200013c565b42600081905550610258600054620000509190620001a7565b6002819055503373ffffffffffffffffffffffffffffffffffffffff1660808173ffffffffffffffffffffffffffffffffffffffff168152505080600360006101000a81548173ffffffffffffffffffffffffffffffffffffffff021916908373ffffffffffffffffffffffffffffffffffffffff16021790555050620001e2565b600080fd5b600073ffffffffffffffffffffffffffffffffffffffff82169050919050565b60006200010482620000d7565b9050919050565b6200011681620000f7565b81146200012257600080fd5b50565b60008151905062000136816200010b565b92915050565b600060208284031215620001555762000154620000d2565b5b6000620001658482850162000125565b91505092915050565b6000819050919050565b7f4e487b7100000000000000000000000000000000000000000000000000000000600052601160045260246000fd5b6000620001b4826200016e565b9150620001c1836200016e565b9250828201905080821115620001dc57620001db62000178565b5b92915050565b6080516110f462000205600039600081816101d1015261041b01526110f46000f3fe60806040526004361061007b5760003560e01c806386d1a69f1161004e57806386d1a69f146101095780638da5cb5b14610134578063a9b12c4c1461015f578063dad69ae81461018a5761007b565b8063076d5556146100805780633ccfd60b146100ab5780634283757b146100c2578063741bef1a146100de575b600080fd5b34801561008c57600080fd5b506100956101c9565b6040516100a29190610675565b60405180910390f35b3480156100b757600080fd5b506100c06101cf565b005b6100dc60048036038101906100d791906107ea565b6102eb565b005b3480156100ea57600080fd5b506100f36103ed565b60405161010091906108e1565b60405180910390f35b34801561011557600080fd5b5061011e610413565b60405161012b9190610675565b60405180910390f35b34801561014057600080fd5b50610149610419565b604051610156919061091d565b60405180910390f35b34801561016b57600080fd5b5061017461043d565b6040516101819190610675565b60405180910390f35b34801561019657600080fd5b506101b160048036038101906101ac9190610964565b610445565b6040516101c093929190610a10565b60405180910390f35b60005481565b7f000000000000000000000000000000000000000000000000000000000000000073ffffffffffffffffffffffffffffffffffffffff163373ffffffffffffffffffffffffffffffffffffffff161461025d576040517f08c379a000000000000000000000000000000000000000000000000000000000815260040161025490610aa1565b60405180910390fd5b6002544210156102a2576040517f08c379a000000000000000000000000000000000000000000000000000000000815260040161029990610b0d565b60405180910390fd5b3373ffffffffffffffffffffffffffffffffffffffff166108fc479081150290604051600060405180830381858888f193505050501580156102e8573d6000803e3d6000fd5b50565b6802b5e3af16b188000061032a600360009054906101000a900473ffffffffffffffffffffffffffffffffffffffff163461058f90919063ffffffff16565b101561036b576040517f08c379a000000000000000000000000000000000000000000000000000000000815260040161036290610b79565b60405180910390fd5b6001604051806060016040528084815260200183815260200134815250908060018154018082558091505060019003906000526020600020906003020160009091909190915060008201518160000190816103c69190610d9b565b5060208201518160010190816103dc9190610d9b565b506040820151816002015550505050565b600360009054906101000a900473ffffffffffffffffffffffffffffffffffffffff1681565b60025481565b7f000000000000000000000000000000000000000000000000000000000000000081565b600042905090565b6001818154811061045557600080fd5b906000526020600020906003020160009150905080600001805461047890610bc8565b80601f01602080910402602001604051908101604052809291908181526020018280546104a490610bc8565b80156104f15780601f106104c6576101008083540402835291602001916104f1565b820191906000526020600020905b8154815290600101906020018083116104d457829003601f168201915b50505050509080600101805461050690610bc8565b80601f016020809104026020016040519081016040528092919081815260200182805461053290610bc8565b801561057f5780601f106105545761010080835404028352916020019161057f565b820191906000526020600020905b81548152906001019060200180831161056257829003601f168201915b5050505050908060020154905083565b60008061059b836105cb565b90506000670de0b6b3a764000085836105b49190610e9c565b6105be9190610f0d565b9050809250505092915050565b6000808273ffffffffffffffffffffffffffffffffffffffff1663feaf968c6040518163ffffffff1660e01b815260040160a060405180830381865afa158015610619573d6000803e3d6000fd5b505050506040513d601f19601f8201168201806040525081019061063d9190610fcb565b5050509150506402540be400816106549190611046565b915050919050565b6000819050919050565b61066f8161065c565b82525050565b600060208201905061068a6000830184610666565b92915050565b6000604051905090565b600080fd5b600080fd5b600080fd5b600080fd5b6000601f19601f8301169050919050565b7f4e487b7100000000000000000000000000000000000000000000000000000000600052604160045260246000fd5b6106f7826106ae565b810181811067ffffffffffffffff82111715610716576107156106bf565b5b80604052505050565b6000610729610690565b905061073582826106ee565b919050565b600067ffffffffffffffff821115610755576107546106bf565b5b61075e826106ae565b9050602081019050919050565b82818337600083830152505050565b600061078d6107888461073a565b61071f565b9050828152602081018484840111156107a9576107a86106a9565b5b6107b484828561076b565b509392505050565b600082601f8301126107d1576107d06106a4565b5b81356107e184826020860161077a565b91505092915050565b600080604083850312156108015761080061069a565b5b600083013567ffffffffffffffff81111561081f5761081e61069f565b5b61082b858286016107bc565b925050602083013567ffffffffffffffff81111561084c5761084b61069f565b5b610858858286016107bc565b9150509250929050565b600073ffffffffffffffffffffffffffffffffffffffff82169050919050565b6000819050919050565b60006108a76108a261089d84610862565b610882565b610862565b9050919050565b60006108b98261088c565b9050919050565b60006108cb826108ae565b9050919050565b6108db816108c0565b82525050565b60006020820190506108f660008301846108d2565b92915050565b600061090782610862565b9050919050565b610917816108fc565b82525050565b6000602082019050610932600083018461090e565b92915050565b6109418161065c565b811461094c57600080fd5b50565b60008135905061095e81610938565b92915050565b60006020828403121561097a5761097961069a565b5b60006109888482850161094f565b91505092915050565b600081519050919050565b600082825260208201905092915050565b60005b838110156109cb5780820151818401526020810190506109b0565b60008484015250505050565b60006109e282610991565b6109ec818561099c565b93506109fc8185602086016109ad565b610a05816106ae565b840191505092915050565b60006060820190508181036000830152610a2a81866109d7565b90508181036020830152610a3e81856109d7565b9050610a4d6040830184610666565b949350505050565b7f4e6f74206f776e65720000000000000000000000000000000000000000000000600082015250565b6000610a8b60098361099c565b9150610a9682610a55565b602082019050919050565b60006020820190508181036000830152610aba81610a7e565b9050919050565b7f54696d65206861736e2774207265616368656420796574000000000000000000600082015250565b6000610af760178361099c565b9150610b0282610ac1565b602082019050919050565b60006020820190508181036000830152610b2681610aea565b9050919050565b7f436f6d69742052657175697265732068696768657220616d6f756e7400000000600082015250565b6000610b63601c8361099c565b9150610b6e82610b2d565b602082019050919050565b60006020820190508181036000830152610b9281610b56565b9050919050565b7f4e487b7100000000000000000000000000000000000000000000000000000000600052602260045260246000fd5b60006002820490506001821680610be057607f821691505b602082108103610bf357610bf2610b99565b5b50919050565b60008190508160005260206000209050919050565b60006020601f8301049050919050565b600082821b905092915050565b600060088302610c5b7fffffffffffffffffffffffffffffffffffffffffffffffffffffffffffffffff82610c1e565b610c658683610c1e565b95508019841693508086168417925050509392505050565b6000610c98610c93610c8e8461065c565b610882565b61065c565b9050919050565b6000819050919050565b610cb283610c7d565b610cc6610cbe82610c9f565b848454610c2b565b825550505050565b600090565b610cdb610cce565b610ce6818484610ca9565b505050565b5b81811015610d0a57610cff600082610cd3565b600181019050610cec565b5050565b601f821115610d4f57610d2081610bf9565b610d2984610c0e565b81016020851015610d38578190505b610d4c610d4485610c0e565b830182610ceb565b50505b505050565b600082821c905092915050565b6000610d7260001984600802610d54565b1980831691505092915050565b6000610d8b8383610d61565b9150826002028217905092915050565b610da482610991565b67ffffffffffffffff811115610dbd57610dbc6106bf565b5b610dc78254610bc8565b610dd2828285610d0e565b600060209050601f831160018114610e055760008415610df3578287015190505b610dfd8582610d7f565b865550610e65565b601f198416610e1386610bf9565b60005b82811015610e3b57848901518255600182019150602085019450602081019050610e16565b86831015610e585784890151610e54601f891682610d61565b8355505b6001600288020188555050505b505050505050565b7f4e487b7100000000000000000000000000000000000000000000000000000000600052601160045260246000fd5b6000610ea78261065c565b9150610eb28361065c565b9250828202610ec08161065c565b91508282048414831517610ed757610ed6610e6d565b5b5092915050565b7f4e487b7100000000000000000000000000000000000000000000000000000000600052601260045260246000fd5b6000610f188261065c565b9150610f238361065c565b925082610f3357610f32610ede565b5b828204905092915050565b600069ffffffffffffffffffff82169050919050565b610f5d81610f3e565b8114610f6857600080fd5b50565b600081519050610f7a81610f54565b92915050565b6000819050919050565b610f9381610f80565b8114610f9e57600080fd5b50565b600081519050610fb081610f8a565b92915050565b600081519050610fc581610938565b92915050565b600080600080600060a08688031215610fe757610fe661069a565b5b6000610ff588828901610f6b565b955050602061100688828901610fa1565b945050604061101788828901610fb6565b935050606061102888828901610fb6565b925050608061103988828901610f6b565b9150509295509295909350565b600061105182610f80565b915061105c83610f80565b925082820261106a81610f80565b91507f800000000000000000000000000000000000000000000000000000000000000084146000841216156110a2576110a1610e6d565b5b82820584148315176110b7576110b6610e6d565b5b509291505056fea2646970667358221220d2caadb45a44aac5b728d7a070653433be68290bde41fa28d5059a7fbd4176ea64736f6c63430008120033",
  "devdoc": {
    "kind": "dev",
    "methods": {},
    "version": 1
  },
  "userdoc": {
    "kind": "user",
    "methods": {},
    "version": 1
  },
  "storageLayout": {
    "storage": [
      {
        "astId": 108,
        "contract": "contracts/commit.sol:Comitment",
        "label": "deployedDate",
        "offset": 0,
        "slot": "0",
        "type": "t_uint256"
      },
      {
        "astId": 124,
        "contract": "contracts/commit.sol:Comitment",
        "label": "finding",
        "offset": 0,
        "slot": "1",
        "type": "t_array(t_struct(Fund)120_storage)dyn_storage"
      },
      {
        "astId": 128,
        "contract": "contracts/commit.sol:Comitment",
        "label": "release",
        "offset": 0,
        "slot": "2",
        "type": "t_uint256"
      },
      {
        "astId": 131,
        "contract": "contracts/commit.sol:Comitment",
        "label": "priceFeed",
        "offset": 0,
        "slot": "3",
        "type": "t_contract(AggregatorV3Interface)45"
      }
    ],
    "types": {
      "t_array(t_struct(Fund)120_storage)dyn_storage": {
        "base": "t_struct(Fund)120_storage",
        "encoding": "dynamic_array",
        "label": "struct Comitment.Fund[]",
        "numberOfBytes": "32"
      },
      "t_contract(AggregatorV3Interface)45": {
        "encoding": "inplace",
        "label": "contract AggregatorV3Interface",
        "numberOfBytes": "20"
      },
      "t_string_storage": {
        "encoding": "bytes",
        "label": "string",
        "numberOfBytes": "32"
      },
      "t_struct(Fund)120_storage": {
        "encoding": "inplace",
        "label": "struct Comitment.Fund",
        "members": [
          {
            "astId": 115,
            "contract": "contracts/commit.sol:Comitment",
            "label": "NameOfcomit",
            "offset": 0,
            "slot": "0",
            "type": "t_string_storage"
          },
          {
            "astId": 117,
            "contract": "contracts/commit.sol:Comitment",
            "label": "reason",
            "offset": 0,
            "slot": "1",
            "type": "t_string_storage"
          },
          {
            "astId": 119,
            "contract": "contracts/commit.sol:Comitment",
            "label": "amount",
            "offset": 0,
            "slot": "2",
            "type": "t_uint256"
          }
        ],
        "numberOfBytes": "96"
      },
      "t_uint256": {
        "encoding": "inplace",
        "label": "uint256",
        "numberOfBytes": "32"
      }
    }
  }
}