{
  "address": "0xF07d015E2546b7eC7df70d585F8bFf01fC8f78e9",
  "abi": [
    {
      "inputs": [],
      "stateMutability": "nonpayable",
      "type": "constructor"
    },
    {
      "inputs": [],
      "name": "blocktime",
      "outputs": [
        {
          "internalType": "uint256",
          "name": "time",
          "type": "uint256"
        }
      ],
      "stateMutability": "view",
      "type": "function"
    },
    {
      "inputs": [],
      "name": "deployedDate",
      "outputs": [
        {
          "internalType": "uint256",
          "name": "",
          "type": "uint256"
        }
      ],
      "stateMutability": "view",
      "type": "function"
    },
    {
      "inputs": [
        {
          "internalType": "uint256",
          "name": "",
          "type": "uint256"
        }
      ],
      "name": "finding",
      "outputs": [
        {
          "internalType": "string",
          "name": "NameOfcomit",
          "type": "string"
        },
        {
          "internalType": "string",
          "name": "reason",
          "type": "string"
        },
        {
          "internalType": "uint256",
          "name": "amount",
          "type": "uint256"
        }
      ],
      "stateMutability": "view",
      "type": "function"
    },
    {
      "inputs": [
        {
          "internalType": "string",
          "name": "name",
          "type": "string"
        },
        {
          "internalType": "string",
          "name": "reasoning",
          "type": "string"
        }
      ],
      "name": "funding",
      "outputs": [],
      "stateMutability": "payable",
      "type": "function"
    },
    {
      "inputs": [],
      "name": "owner",
      "outputs": [
        {
          "internalType": "address",
          "name": "",
          "type": "address"
        }
      ],
      "stateMutability": "view",
      "type": "function"
    },
    {
      "inputs": [],
      "name": "release",
      "outputs": [
        {
          "internalType": "uint256",
          "name": "",
          "type": "uint256"
        }
      ],
      "stateMutability": "view",
      "type": "function"
    },
    {
      "inputs": [],
      "name": "withdraw",
      "outputs": [],
      "stateMutability": "nonpayable",
      "type": "function"
    }
  ],
  "transactionHash": "0x1e3682a1016637fe89e0b098781975443d170687326a0af5072d01e07d960c75",
  "args": [],
  "numDeployments": 1,
  "solcInputHash": "b5a2bd74e061eaa25846104b99496ba6",
  "bytecode": "0x60a060405234801561001057600080fd5b504260008190555061025860005461002891906100a0565b6002819055503373ffffffffffffffffffffffffffffffffffffffff1660808173ffffffffffffffffffffffffffffffffffffffff16815250506100d4565b6000819050919050565b7f4e487b7100000000000000000000000000000000000000000000000000000000600052601160045260246000fd5b60006100ab82610067565b91506100b683610067565b92508282019050808211156100ce576100cd610071565b5b92915050565b6080516110126100f66000396000818161019b015261039301526110126000f3fe6080604052600436106100705760003560e01c806386d1a69f1161004e57806386d1a69f146100d35780638da5cb5b146100fe578063a9b12c4c14610129578063dad69ae81461015457610070565b8063076d5556146100755780633ccfd60b146100a05780634283757b146100b7575b600080fd5b34801561008157600080fd5b5061008a610193565b6040516100979190610603565b60405180910390f35b3480156100ac57600080fd5b506100b5610199565b005b6100d160048036038101906100cc9190610778565b6102b5565b005b3480156100df57600080fd5b506100e861038b565b6040516100f59190610603565b60405180910390f35b34801561010a57600080fd5b50610113610391565b6040516101209190610831565b60405180910390f35b34801561013557600080fd5b5061013e6103b5565b60405161014b9190610603565b60405180910390f35b34801561016057600080fd5b5061017b60048036038101906101769190610878565b6103bd565b60405161018a93929190610924565b60405180910390f35b60005481565b7f000000000000000000000000000000000000000000000000000000000000000073ffffffffffffffffffffffffffffffffffffffff163373ffffffffffffffffffffffffffffffffffffffff1614610227576040517f08c379a000000000000000000000000000000000000000000000000000000000815260040161021e906109b5565b60405180910390fd5b60025442101561026c576040517f08c379a000000000000000000000000000000000000000000000000000000000815260040161026390610a21565b60405180910390fd5b3373ffffffffffffffffffffffffffffffffffffffff166108fc479081150290604051600060405180830381858888f193505050501580156102b2573d6000803e3d6000fd5b50565b6802b5e3af16b18800006102c834610507565b1015610309576040517f08c379a000000000000000000000000000000000000000000000000000000000815260040161030090610a8d565b60405180910390fd5b6001604051806060016040528084815260200183815260200134815250908060018154018082558091505060019003906000526020600020906003020160009091909190915060008201518160000190816103649190610cb9565b50602082015181600101908161037a9190610cb9565b506040820151816002015550505050565b60025481565b7f000000000000000000000000000000000000000000000000000000000000000081565b600042905090565b600181815481106103cd57600080fd5b90600052602060002090600302016000915090508060000180546103f090610adc565b80601f016020809104026020016040519081016040528092919081815260200182805461041c90610adc565b80156104695780601f1061043e57610100808354040283529160200191610469565b820191906000526020600020905b81548152906001019060200180831161044c57829003601f168201915b50505050509080600101805461047e90610adc565b80601f01602080910402602001604051908101604052809291908181526020018280546104aa90610adc565b80156104f75780601f106104cc576101008083540402835291602001916104f7565b820191906000526020600020905b8154815290600101906020018083116104da57829003601f168201915b5050505050908060020154905083565b600080610512610541565b90506000670de0b6b3a7640000848361052b9190610dba565b6105359190610e2b565b90508092505050919050565b60008073694aa1769357215de4fac081bf1f309adc325306905060008173ffffffffffffffffffffffffffffffffffffffff1663feaf968c6040518163ffffffff1660e01b815260040160a060405180830381865afa1580156105a8573d6000803e3d6000fd5b505050506040513d601f19601f820116820180604052508101906105cc9190610ee9565b5050509150506402540be400816105e39190610f64565b9250505090565b6000819050919050565b6105fd816105ea565b82525050565b600060208201905061061860008301846105f4565b92915050565b6000604051905090565b600080fd5b600080fd5b600080fd5b600080fd5b6000601f19601f8301169050919050565b7f4e487b7100000000000000000000000000000000000000000000000000000000600052604160045260246000fd5b6106858261063c565b810181811067ffffffffffffffff821117156106a4576106a361064d565b5b80604052505050565b60006106b761061e565b90506106c3828261067c565b919050565b600067ffffffffffffffff8211156106e3576106e261064d565b5b6106ec8261063c565b9050602081019050919050565b82818337600083830152505050565b600061071b610716846106c8565b6106ad565b90508281526020810184848401111561073757610736610637565b5b6107428482856106f9565b509392505050565b600082601f83011261075f5761075e610632565b5b813561076f848260208601610708565b91505092915050565b6000806040838503121561078f5761078e610628565b5b600083013567ffffffffffffffff8111156107ad576107ac61062d565b5b6107b98582860161074a565b925050602083013567ffffffffffffffff8111156107da576107d961062d565b5b6107e68582860161074a565b9150509250929050565b600073ffffffffffffffffffffffffffffffffffffffff82169050919050565b600061081b826107f0565b9050919050565b61082b81610810565b82525050565b60006020820190506108466000830184610822565b92915050565b610855816105ea565b811461086057600080fd5b50565b6000813590506108728161084c565b92915050565b60006020828403121561088e5761088d610628565b5b600061089c84828501610863565b91505092915050565b600081519050919050565b600082825260208201905092915050565b60005b838110156108df5780820151818401526020810190506108c4565b60008484015250505050565b60006108f6826108a5565b61090081856108b0565b93506109108185602086016108c1565b6109198161063c565b840191505092915050565b6000606082019050818103600083015261093e81866108eb565b9050818103602083015261095281856108eb565b905061096160408301846105f4565b949350505050565b7f4e6f74206f776e65720000000000000000000000000000000000000000000000600082015250565b600061099f6009836108b0565b91506109aa82610969565b602082019050919050565b600060208201905081810360008301526109ce81610992565b9050919050565b7f54696d65206861736e2774207265616368656420796574000000000000000000600082015250565b6000610a0b6017836108b0565b9150610a16826109d5565b602082019050919050565b60006020820190508181036000830152610a3a816109fe565b9050919050565b7f436f6d69742052657175697265732068696768657220616d6f756e7400000000600082015250565b6000610a77601c836108b0565b9150610a8282610a41565b602082019050919050565b60006020820190508181036000830152610aa681610a6a565b9050919050565b7f4e487b7100000000000000000000000000000000000000000000000000000000600052602260045260246000fd5b60006002820490506001821680610af457607f821691505b602082108103610b0757610b06610aad565b5b50919050565b60008190508160005260206000209050919050565b60006020601f8301049050919050565b600082821b905092915050565b600060088302610b6f7fffffffffffffffffffffffffffffffffffffffffffffffffffffffffffffffff82610b32565b610b798683610b32565b95508019841693508086168417925050509392505050565b6000819050919050565b6000610bb6610bb1610bac846105ea565b610b91565b6105ea565b9050919050565b6000819050919050565b610bd083610b9b565b610be4610bdc82610bbd565b848454610b3f565b825550505050565b600090565b610bf9610bec565b610c04818484610bc7565b505050565b5b81811015610c2857610c1d600082610bf1565b600181019050610c0a565b5050565b601f821115610c6d57610c3e81610b0d565b610c4784610b22565b81016020851015610c56578190505b610c6a610c6285610b22565b830182610c09565b50505b505050565b600082821c905092915050565b6000610c9060001984600802610c72565b1980831691505092915050565b6000610ca98383610c7f565b9150826002028217905092915050565b610cc2826108a5565b67ffffffffffffffff811115610cdb57610cda61064d565b5b610ce58254610adc565b610cf0828285610c2c565b600060209050601f831160018114610d235760008415610d11578287015190505b610d1b8582610c9d565b865550610d83565b601f198416610d3186610b0d565b60005b82811015610d5957848901518255600182019150602085019450602081019050610d34565b86831015610d765784890151610d72601f891682610c7f565b8355505b6001600288020188555050505b505050505050565b7f4e487b7100000000000000000000000000000000000000000000000000000000600052601160045260246000fd5b6000610dc5826105ea565b9150610dd0836105ea565b9250828202610dde816105ea565b91508282048414831517610df557610df4610d8b565b5b5092915050565b7f4e487b7100000000000000000000000000000000000000000000000000000000600052601260045260246000fd5b6000610e36826105ea565b9150610e41836105ea565b925082610e5157610e50610dfc565b5b828204905092915050565b600069ffffffffffffffffffff82169050919050565b610e7b81610e5c565b8114610e8657600080fd5b50565b600081519050610e9881610e72565b92915050565b6000819050919050565b610eb181610e9e565b8114610ebc57600080fd5b50565b600081519050610ece81610ea8565b92915050565b600081519050610ee38161084c565b92915050565b600080600080600060a08688031215610f0557610f04610628565b5b6000610f1388828901610e89565b9550506020610f2488828901610ebf565b9450506040610f3588828901610ed4565b9350506060610f4688828901610ed4565b9250506080610f5788828901610e89565b9150509295509295909350565b6000610f6f82610e9e565b9150610f7a83610e9e565b9250828202610f8881610e9e565b91507f80000000000000000000000000000000000000000000000000000000000000008414600084121615610fc057610fbf610d8b565b5b8282058414831517610fd557610fd4610d8b565b5b509291505056fea26469706673582212204de2df3b4804057ebc960adde04050b4dcd2d030991f40603df47cf0f6132e6464736f6c63430008120033",
  "devdoc": {
    "kind": "dev",
    "methods": {},
    "version": 1
  },
  "userdoc": {
    "kind": "user",
    "methods": {},
    "version": 1
  },
  "storageLayout": {
    "storage": [
      {
        "astId": 108,
        "contract": "contracts/commit.sol:Comitment",
        "label": "deployedDate",
        "offset": 0,
        "slot": "0",
        "type": "t_uint256"
      },
      {
        "astId": 124,
        "contract": "contracts/commit.sol:Comitment",
        "label": "finding",
        "offset": 0,
        "slot": "1",
        "type": "t_array(t_struct(Fund)120_storage)dyn_storage"
      },
      {
        "astId": 128,
        "contract": "contracts/commit.sol:Comitment",
        "label": "release",
        "offset": 0,
        "slot": "2",
        "type": "t_uint256"
      }
    ],
    "types": {
      "t_array(t_struct(Fund)120_storage)dyn_storage": {
        "base": "t_struct(Fund)120_storage",
        "encoding": "dynamic_array",
        "label": "struct Comitment.Fund[]",
        "numberOfBytes": "32"
      },
      "t_string_storage": {
        "encoding": "bytes",
        "label": "string",
        "numberOfBytes": "32"
      },
      "t_struct(Fund)120_storage": {
        "encoding": "inplace",
        "label": "struct Comitment.Fund",
        "members": [
          {
            "astId": 115,
            "contract": "contracts/commit.sol:Comitment",
            "label": "NameOfcomit",
            "offset": 0,
            "slot": "0",
            "type": "t_string_storage"
          },
          {
            "astId": 117,
            "contract": "contracts/commit.sol:Comitment",
            "label": "reason",
            "offset": 0,
            "slot": "1",
            "type": "t_string_storage"
          },
          {
            "astId": 119,
            "contract": "contracts/commit.sol:Comitment",
            "label": "amount",
            "offset": 0,
            "slot": "2",
            "type": "t_uint256"
          }
        ],
        "numberOfBytes": "96"
      },
      "t_uint256": {
        "encoding": "inplace",
        "label": "uint256",
        "numberOfBytes": "32"
      }
    }
  }
}